:100000006F70107B1300000013000000130000004D
:100010001300000013000000130000001300000094
:100020001300000013000000130000001300000084
:08003000130000007300100032
:1000380000000000000000004C7900005C7900001E
:1000480000000000F67E0000000000000000000034
:10005800F87E0000FA7E00000000000000000000AA
:10006800FC7E000000000000FE7E00000000000092
:10007800007F0000027F0000047F0000067F000070
:10008800087F00000A7F0000BE690000726A000055
:10009800266B0000DA6B00008E6C0000167F0000F3
:1000A800187F00001A7F00001C7F00001E7F0000E0
:1000B800207F0000227F0000247F0000267F0000B0
:1000C800287F00002A7F00002C7F0000426D00007E
:1000D800307F00008C6F0000347F0000367F000006
:1000E8004C70000004710000C47100003E7F0000E5
:1000F800407F0000427F0000447F0000467F0000F0
:10010800487F0000CA6200008E630000526400004D
:100118005A6E0000527F0000547F0000567F000096
:10012800147700005A7F00005C7F00005E7F0000AB
:10013800607F0000627F000084720000667F00001C
:100148001A650000DE650000487300005476000060
:10015800707F0000727F0000747F0000767F0000CF
:10016800787F00007A7F00007C7F00007E7F00009F
:10017800807F0000827F0000847F000066A100006D
:10018800887F00008A7F0000EE680000A0660000FB
:10019800646700002E680000947F0000D477000098
:1001A800987F00009A7F00009C7F000094780000F0
:1001B800A07F0000A27F0000A47F0000A67F0000AF
:1001C800A87F0000AA7F0000AC7F0000AE7F00007F
:1001D8000000000000000000000000000000000017
:1001E8000000000000000000000000000000000007
:0801F8000000000000000000FF
:100200003D432A876373C3029377F700BDEFADE5E3
:10021000937606FF3D8ABA960CC34CC30CC74CC7F5
:100220004107E36BD7FE11E28280B306C3408A0622
:100230009702000096966780A6002307B700A306E2
:10024000B7002306B700A305B7002305B700A30432
:10025000B7002304B700A303B7002303B700A3022A
:10026000B7002302B700A301B7002301B700A30022
:10027000B7002300B700828093F5F50F93968500B1
:10028000D58D93960501D58D61B79396270097027A
:10029000000096968682E78086FA9680C1171D8FA9
:1002A0003E96E374C3F8A5B7011122CE00102326B1
:1002B000A4FE37F500E08328450037F500E093F809
:1002C000E8FF2322150183A801820965130505F4BF
:1002D00033D5A802AA8601470325C4FEAA87014890
:1002E00037F500E03303F702B308D8029A98338356
:1002F000F60233B6F6029A85B387C8003E860CC96B
:1003000050C9B7F700E09843B7F700E0136707015B
:1003100098C3B7F700E09843B7F700E013671702F8
:1003200098C30100B7F700E0DC4313F717008547D7
:10033000E31AF7FEB7F700E09843B7F700E0799BC0
:1003400098C30100724405618280011106CE22CC5F
:100350000010AA8E2E8E32833685BA853E86C286DE
:100360004687F687A307F4FEF2872307F4FE9A87F1
:10037000A306F4FEAA872306F4FEAE87A305F4FEC7
:10038000B2872305F4FEB687A304F4FEBA872304DC
:10039000F4FE8347F4FE93068004014681453E85C2
:1003A000052F8347E4FE93068004014681453E8580
:1003B00005278347D4FE93068004014681453E8588
:1003C000012F8347C4FE93068004014681453E8584
:1003D00001278347B4FE93068004014681453E858C
:1003E000C52D8347A4FE93068004014681453E85C2
:1003F000C525834794FE93068004014681453E85CA
:10040000C12D834784FE93068004014681453E85C5
:10041000C1258347440093068004014681453E85FB
:10042000452D8347040093068004014681453E859F
:1004300045258347840093068004014681453E8517
:10044000412D0100F240624405618280011106CE17
:1004500022CC00102326A4FE2324B4FEB2873687C4
:100460002313F4FEBA872312F4FE85450965EF8055
:10047000A05FB70705500D472380E700B707055079
:100480000547A380E700B7070550035744FE2392B2
:10049000E700B7070550035764FE2393E700B7074B
:1004A00005500327C4FE98C7B7070550032784FEED
:1004B000D8C7B707055011472381E70081451305C9
:1004C0006005EF50905613056005EF505052010043
:1004D000F240624405618280797106D622D4001808
:1004E000232EA4FC231704FE231604FE0327C4FDB9
:1004F000A54763E0E70C8327C4FD13972700E56752
:1005000093870778BA979C438287B73701409387D0
:1005100007C083D74702C207C1832317F4FE69A827
:10052000B707004083D74702C207C1832317F4FEF1
:1005300061A0B70700409387074083D74702C207EF
:10054000C1832317F4FE8DA8B71700409387078057
:1005500083D74702C207C1832317F4FEB1A8B71798
:100560000040938707C083D74702C207C183231780
:10057000F4FE99A0B73701409387074083D747021D
:10058000C207C1832317F4FE05A8B757014093871C
:1005900007C083D74702C207C1832317F4FE29A8E7
:1005A000B757014083D74702C207C1832317F4FE20
:1005B00021A0231704FE0100B707002013870704BA
:1005C0008327C4FDBA9783C7070013F7F70F930774
:1005D000F00F6317F7008357E4FE2316F4FE2DA8EF
:1005E000B7070020138707048327C4FDBA9783C782
:1005F000070093F7F70F3E853521AA8791EB8357C4
:10060000E4FEB307F040C207C1832316F4FE29A01D
:100610008357E4FE2316F4FE8317C4FE3E85B250D2
:10062000225445618280011122CE00102326A4FEAF
:100630000327C4FEA54763E0E7088327C4FE13979A
:100640002700E5679387877ABA979C438287B737F5
:100650000140938707C023920702B9A8B70700405B
:100660002392070291A8B70700409387074023927F
:10067000070299A0B71700409387078023920702CB
:1006800025A8B7170040938707C0239207022DA023
:10069000B7370140938707402392070231A8B75725
:1006A0000140938707C02392070239A0B757014042
:1006B0002392070211A001000100724405618280AB
:1006C000397106DE22DC80002326A4FC2324B4FC3E
:1006D0002322C4FC232604FE91450325C4FCEF100D
:1006E000904BAA873E871306000DE5679385870D1B
:1006F0003A85EF40C0218327C4FC1397C7008327A6
:1007000084FC7D8F8327C4FCB207B307F74093B7FF
:10071000170093F7F70F3E871306100DE5679385D3
:10072000870D3A85EF40A01E8327C4FC1397C700AE
:10073000832744FC7D8F8327C4FCB207B307F740AF
:1007400093B7170093F7F70F3E871306200DE56761
:100750009385870D3A85EF40801B0325C4FCEF107D
:10076000F049832784FC93F7F70F93068004014632
:1007700081453E85B12E832744FC93F7F70F9306FE
:100780008004014681453E85A126832784FC13F71A
:10079000F70FB7070020938607048327C4FCB6979A
:1007A0002380E7000327C4FCA54763E0E70883270D
:1007B000C4FC13972700E5679387077DBA979C438E
:1007C0008287B7370140938707C02324F4FE8DA0AA
:1007D000B70700402324F4FEA1A8B7070040938781
:1007E00007402324F4FEA9A0B71700409387078091
:1007F0002324F4FE35A8B7170040938707C02324AD
:10080000F4FE3DA0B7370140938707402324F4FE50
:1008100005A0B7570140938707C02324F4FE09A819
:10082000B75701402324F4FE21A085472326F4FE78
:1008300085450545EF80A027832784FC13D78700D3
:100840008D47631AF7008545B70716001385070C17
:10085000EF70302CE5A8832784FC13D78700C547A9
:10086000631AF7008545B707180013850710EF7066
:10087000502AE9A8832784FC13D787009307200216
:10088000631AF7008545B7171A0013850780EF70C4
:1008900050286DA8832784FC13D787009307300264
:1008A000631AF7008545B7171A00138507C0EF7064
:1008B000502669A8832784FC13D787009307100369
:1008C0006317F70085450565EF70B02441A08327C5
:1008D00084FC13D7870093071007631AF700854538
:1008E000B707008013854700EF70B02285A08327EB
:1008F00084FC13D7870093073008631AF7008545F7
:10090000B707138013850701EF70B02081A08327FC
:1009100084FC13D7870093071009631AF7008545F5
:10092000B707158013850702EF70B01E05A0832757
:1009300084FC13D78700930730096319F7008545B6
:10094000B707158013850704EF70B01C8327C4FE1A
:10095000A9EB232E04FC232004FE231204FE93079C
:10096000C4FD3E85EF809047231E04FCFD572310F5
:10097000F4FE231104FE231F04FC230204FE93074C
:10098000C4FDBE85032584FEEF806040930500060C
:10099000032584FEEF80D05A8545032584FEEF8031
:1009A000B0470100F250625421618280011122CED1
:1009B00000102326A4FEAE87A305F4FE8347B4FEF1
:1009C00085CB8327C4FEBD8B0547B317F7009396ED
:1009D0000701C1828327C4FE13D75700B707002041
:1009E0000A079387C704BA979C43368798CB3DA0E4
:1009F0008327C4FEBD8B0547B317F7009396070105
:100A0000C1828327C4FE13D75700B70700200A0707
:100A10009387C704BA979C433687D8CB01007244AA
:100A200005618280011122CE00102326A4FE8327B7
:100A3000C4FE958313F77700B70700200A07938752
:100A4000C704BA979C439C470327C4FE7D8B854609
:100A50003397E600F98FB337F00093F7F70F3E8531
:100A6000724405618280797122D60018232EA4FC7D
:100A70008327C4FD958393F7F70F9D8BA307F4FE9F
:100A80008327C4FD93F7F70FFD8B2307F4FE03477D
:100A9000F4FEB70700200A079387C704BA979C4360
:100AA000D8478347E4FE8546B397F600C207C18363
:100AB0003E868346F4FEB70700208A069387C70464
:100AC000B6979C43318FD8C701003254456182806C
:100AD000797106D622D40018232EA4FC232CB4FC52
:100AE000B2872328D4FCA30BF4FC232004FE23228A
:100AF00004FE232404FE8327C4FD958393F7F70F98
:100B00009D8BA307F4FE8327C4FD93F7F70FFD8B9E
:100B10002307F4FE8347F4FE91E785451145EF7006
:100B2000107991A80347F4FE85476317F7008545C0
:100B30002145EF70D07781A00347F4FE8947631702
:100B4000F70085454145EF70907635A00347F4FEE8
:100B50008D476318F700854513050002EF70307567
:100B600019A80347F4FE91476317F700854513055D
:100B70000004EF70D0738347E4FE0547B317F70016
:100B8000C207C1832310F4FE032784FD8547631742
:100B9000F702832704FDC207C183A183C207C18373
:100BA00089E78D472322F4FE11A8832704FDC2079D
:100BB000C183A183C207C1832322F4FE832704FDDE
:100BC000C207C18393F7F70F2324F4FE0347F4FE13
:100BD000B70700200A079387C704BA979C431307F7
:100BE00004FEBA853E85EF70A04C032784FD85473F
:100BF0006319F7020347F4FEB70700200A0793873B
:100C0000C704BA9794438347E4FE0547B317F70038
:100C1000C207C183034774FD3A86BE853685EF70EF
:100C2000C06B0100B2502254456182801D7186CE96
:100C3000A2CC80102326A4FA2324B4FA85450325E8
:100C4000C4FAEF104075AA873E871306D006E56701
:100C5000938547153A85EF30904B832784FAB33755
:100C6000F00093F7F70F3E871306F006E5679385CC
:100C700047153A85EF30B049832784FABD832315A1
:100C8000F4FE8357A4FE85073E87832784FAB3D7F3
:100C9000E7022314F4FE0325C4FAEF102076B737D9
:100CA0000140938707C02326F4FE0327C4FAA54713
:100CB00063ECE7088327C4FA13972700E567938757
:100CC000877FBA979C438287B7370140938707C0D5
:100CD0002326F4FE95A8B70700402326F4FEADA016
:100CE000B7070040938707402326F4FEB1A8B71743
:100CF0000040938707802326F4FEB9A0B717004071
:100D0000938707C02326F4FE81A0B717004023264F
:100D1000F4FE1DA8B7170040938707402326F4FE72
:100D200025A0B7370140938707402326F4FE29A862
:100D3000B7570140938707C02326F4FE31A0B75769
:100D400001402326F4FE0100232E04FC232004FE90
:100D5000231204FE835784FE2310F4FE8357A4FE5F
:100D6000231EF4FC231104FE231F04FC230204FEB3
:100D70009307C4FDBE850325C4FEEF8040010546F0
:100D800085450325C4FEEF80B01485450325C4FEC8
:100D9000EF805054E56703AEC7121387C7120323D1
:100DA00047001387C712832887001387C7120328B9
:100DB000C7001387C712084B1387C7124C4B138702
:100DC000C712104F1387C712544F1387C7121853F7
:100DD0009387C712DC53232AC4FB232C64FA232EE7
:100DE00014FB232004FD2322A4FC2324B4FC23268B
:100DF000C4FC2328D4FC232AE4FC232CF4FC832702
:100E0000C4FA93F7F70F8A07130704FFBA9783A76B
:100E100047FC8D453E85EF5040418327C4FA8A0741
:100E2000130704FFBA9783A747FC3E85EF50203C89
:100E300085450325C4FEEF80207E0100F640664410
:100E400025618280797106D622D40018232EA4FC55
:100E5000232CB4FC032784FD896793871771B3376C
:100E6000F70093F7F70F3E8713065003E567938566
:100E7000471A3A85EF30B029B7370140938707C04A
:100E80002326F4FE8327C4FDC183BD8B2547636EF3
:100E9000F70613972700E96793870782BA979C4361
:100EA0008287B7370140938707C02326F4FEB1A895
:100EB000B70700402326F4FE89A8B70700409387B0
:100EC00007402326F4FE91A0B717004093870780C0
:100ED0002326F4FE1DA8B7170040938707C02326DA
:100EE000F4FE25A0B7370140938707402326F4FE80
:100EF00029A8B7570140938707C02326F4FE31A0E5
:100F0000B75701402326F4FE01008327C4FE83D790
:100F1000C7022315F4FE0357A4FE832784FD33077D
:100F2000F702896793870771B357F7022314F4FE1A
:100F30008327C4FDA1838D8B81EB8327C4FE0357D8
:100F400084FE239AE702A9A88327C4FDA18313F78F
:100F5000370085476319F7008327C4FE035784FED3
:100F6000239CE70235A88327C4FDA18313F737002C
:100F700089476319F7008327C4FE035784FE239E25
:100F8000E70239A88327C4FDA18313F737008D47F3
:100F90006318F7008327C4FE035784FE2390E704F9
:100FA0000100B2502254456182805D7186C6A2C4A0
:100FB0008008232EA4FA232CB4FA232AC4FA832708
:100FC000C4FBC1838D453E85EF10E03CAA873E8778
:100FD0001306D00AE5679385471A3A85EF30301338
:100FE000032744FB896793871771B337F70093F79B
:100FF000F70F3E871306F00AE5679385471A3A858F
:10100000EF30F010232E04FC232004FE231204FEF4
:10101000232604FC232804FC232A04FC232C04FCA0
:10102000231504FE8327C4FBC183BD8B3E85EF10CF
:10103000E03C8327C4FB93F7F70F9306803101460A
:1010400085453E85713485450545EF705026B73797
:101050000140938707C02326F4FE8327C4FBC18386
:10106000BD8B2547636EF70613972700E9679387C3
:101070008784BA979C438287B7370140938707C01C
:101080002326F4FEB1A8B70700402326F4FE89A862
:10109000B7070040938707402326F4FE91A0B717B7
:1010A0000040938707802326F4FE1DA8B717004051
:1010B000938707C02326F4FE25A0B7370140938706
:1010C00007402326F4FE29A8B7570140938707C09D
:1010D0002326F4FE31A0B75701402326F4FE010079
:1010E0008327C4FB13D7C7008D47631AF7008545D4
:1010F000B70716001385070CEF70A02115AA8327E8
:10110000C4FB13D7C700C547631AF7008545B70767
:10111000180013850710EF70C01F19AA8327C4FB9E
:1011200013D7C700C947631AF7008545B7071800EA
:1011300013850720EF70E01DE5A88327C4FB13D7B4
:10114000C700CD47631AF7008545B7071800138518
:101150000730EF70001CE9A88327C4FB13D7C70032
:1011600093072002631AF7008545B7171A00138505
:101170000780EF70001A6DA88327C4FB13D7C70040
:1011800093073002631AF7008545B7171A001385D5
:1011900007C0EF70001869A88327C4FB13D7C700E6
:1011A000930710036317F70085450565EF70601618
:1011B00041A08327C4FB13D7C70093071007631A06
:1011C000F7008545B707008013854700EF7060146E
:1011D00085A08327C4FB13D7C70093073008631A81
:1011E000F7008545B707138013850701EF7060127C
:1011F00081A08327C4FB13D7C70093071009631A84
:10120000F7008545B707158013850702EF7060105A
:1012100005A08327C4FB13D7C700930730096319C0
:10122000F7008545B707158013850704EF70600E3A
:1012300003A70182832784FBB357F702C1832315D9
:10124000F4FE03A701828357A4FE8507BE86832789
:1012500084FBB387F602B357F7022314F4FE035757
:1012600084FE832744FB3307F7028967938707715E
:10127000B357F7022313F4FE835784FEFD17C2070A
:10128000C1832310F4FE8357A4FE231EF4FC231114
:1012900004FE231F04FC230204FE9307C4FDBE8545
:1012A0000325C4FEEF70B02E930700072316F4FC4D
:1012B00085472317F4FC231804FC835764FE231985
:1012C000F4FC8947231AF4FC8947231BF4FC231CF4
:1012D00004FC231D04FC8327C4FBA1838D8B9DE3A9
:1012E0009307C4FCBE850325C4FEEF703042A145C0
:1012F0000325C4FEEF80004E91450325C4FEEF8018
:10130000206245A08327C4FBA18313F737008547DC
:101310006315F7029307C4FCBE850325C4FEEF7076
:10132000B058A1450325C4FEEF80804F93050040CF
:101330000325C4FEEF808063ADA08327C4FBA18397
:1013400013F7370089476314F7029307C4FCBE857F
:101350000325C4FEEF707073A1450325C4FEEF8022
:10136000C05191450325C4FEEF80A0651DA88327C9
:10137000C4FBA18313F737008D476314F70293076B
:10138000C4FCBE850325C4FEEF80E00DA145032506
:10139000C4FEEF804053930500400325C4FEEF8058
:1013A000006785450325C4FEEF80802C8545032515
:1013B000C4FEEF8060260100B64026446161828051
:1013C000797106D622D40018232EA4FC8327C4FDED
:1013D000B337F00093F7F70F3E8713061004E56765
:1013E0009385471F3A85EF3080528327C4FD9C4385
:1013F000BD8B0547B317F70093960701C18283277A
:10140000C4FD9C4313D75700B70700200A079387F2
:10141000C704BA979C43368798CB8327C4FDDC4327
:10142000BD8B0547B317F70093960701C182832749
:10143000C4FDDC4313D75700B70700200A07938782
:10144000C704BA979C43368798CB8327C4FDDC47F3
:101450002326F4FE01008327C4FE1387F7FF23260B
:10146000E4FEF5FB8327C4FDDC43BD8B0547B317C2
:10147000F70093960701C1828327C4FDDC4313D78D
:101480005700B70700200A079387C704BA979C4301
:101490003687D8CB8327C4FDDC472324F4FE010024
:1014A000832784FE1387F7FF2324E4FEF5FB8327BD
:1014B000C4FD9C43BD8B0547B317F7009396070106
:1014C000C1828327C4FD9C4313D75700B707002070
:1014D0000A079387C704BA979C433687D8CB010085
:1014E000B250225445618280797106D622D4001808
:1014F000232EA4FC8327C4FDB337F00093F7F70F26
:101500003E8713064005E5679385471F3A85EF3010
:1015100000408327C4FDDC43BD8B0547B317F700AC
:1015200093960701C1828327C4FDDC4313D757007C
:10153000B70700200A079387C704BA979C433687EA
:10154000D8CB8327C4FD9C43BD8B0547B317F70059
:1015500093960701C1828327C4FD9C4313D757008C
:10156000B70700200A079387C704BA979C433687BA
:10157000D8CB8327C4FDDC472326F4FE0100832754
:10158000C4FE1387F7FF2326E4FEF5FB8327C4FD83
:101590009C43BD8B0547B317F70093960701C182A3
:1015A0008327C4FD9C4313D75700B70700200A07C1
:1015B0009387C704BA979C43368798CB8327C4FD8B
:1015C000DC472324F4FE0100832784FE1387F7FF02
:1015D0002324E4FEF5FB8327C4FDDC43BD8B0547D4
:1015E000B317F70093960701C1828327C4FDDC433C
:1015F00013D75700B70700200A079387C704BA9785
:101600009C43368798CB8327C4FDDC472322F4FE16
:101610000100832744FE1387F7FF2322E4FEF5FB36
:101620000100B250225445618280797106D622D4DD
:101630000018232EA4FCAE87A30DF4FC8327C4FD61
:10164000B337F00093F7F70F3E8713069006E56770
:101650009385471F3A85EF30802B8327C4FD9C4339
:10166000BD8B0547B317F70093960701C182832707
:10167000C4FD9C4313D75700B70700200A07938780
:10168000C704BA979C433687D8CB8347B4FD95CB24
:101690008327C4FDDC43BD8B0547B317F700939642
:1016A0000701C1828327C4FDDC4313D75700B70766
:1016B00000200A079387C704BA979C43368798CBC4
:1016C0000DA88327C4FDDC43BD8B0547B317F70086
:1016D00093960701C1828327C4FDDC4313D75700CB
:1016E000B70700200A079387C704BA979C43368739
:1016F000D8CB8327C4FDDC472326F4FE01008327D3
:10170000C4FE1387F7FF2326E4FEF5FB8327C4FD01
:101710009C43BD8B0547B317F70093960701C18221
:101720008327C4FD9C4313D75700B70700200A073F
:101730009387C704BA979C43368798CB8327C4FD09
:10174000DC472324F4FE0100832784FE1387F7FF80
:101750002324E4FEF5FB8327C4FD9C43BD8B054792
:10176000B317F70093960701C1828327C4FD9C43FA
:1017700013D75700B70700200A079387C704BA9703
:101780009C433687D8CB8327C4FDDC43BD8B0547FC
:10179000B317F70093960701C1828327C4FDDC438A
:1017A00013D75700B70700200A079387C704BA97D3
:1017B0009C43368798CB0100B25022544561828009
:1017C000797106D622D40018232EA4FC8327C4FDE9
:1017D000B337F00093F7F70F3E8713065008E5671D
:1017E0009385471F3A85EF308012A30704FE8327B5
:1017F000C4FD9C43BD8B0547B317F70093960701C3
:10180000C1828327C4FD9C4313D75700B70700202C
:101810000A079387C704BA979C433687D8CB832798
:10182000C4FDDC43BD8B0547B317F7009396070152
:10183000C1828327C4FDDC4313D75700B7070020BC
:101840000A079387C704BA979C43368798CB8327A8
:10185000C4FDDC472324F4FE0100832784FE1387A4
:10186000F7FF2324E4FEF5FB8327C4FD9C43BD8BD7
:101870000547B317F70093960701C1828327C4FD7C
:101880009C4313D75700B70700200A079387C70464
:10189000BA979C43368798CB8327C4FDDC47232225
:1018A000F4FE0100832744FE1387F7FF2322E4FEA2
:1018B000F5FB8327C4FDDC433E85EFF0AF96AA8796
:1018C00081C78547A307F4FE8327C4FD9C43BD8BD6
:1018D0000547B317F70093960701C1828327C4FD1C
:1018E0009C4313D75700B70700200A079387C70404
:1018F000BA979C433687D8CB8327C4FDDC47232087
:10190000F4FE0100832704FE1387F7FF2320E4FE83
:10191000F5FB8347F4FE3E85B25022544561828038
:10192000797106D622D40018232EA4FCAE87A30D0D
:10193000F4FC8327C4FDB337F00093F7F70F3E871D
:101940001306700AE5679385471F3A85EF20307CC0
:10195000930700F8A307F4FE09AA0347B4FD8347E1
:10196000F4FEF98F93F7F70F95CB8327C4FDDC4383
:10197000BD8B0547B317F70093960701C1828327F4
:10198000C4FDDC4313D75700B70700200A0793872D
:10199000C704BA979C43368798CB0DA88327C4FD0C
:1019A000DC43BD8B0547B317F70093960701C1824F
:1019B0008327C4FDDC4313D75700B70700200A076D
:1019C0009387C704BA979C433687D8CB8347F4FEE6
:1019D0008583A307F4FE8327C4FDDC472324F4FE9C
:1019E0000100832784FE1387F7FF2324E4FEF5FB21
:1019F0008327C4FD9C43BD8B0547B317F70093961F
:101A00000701C1828327C4FD9C4313D75700B70742
:101A100000200A079387C704BA979C43368798CB60
:101A20008327C4FDDC472322F4FE0100832744FE04
:101A30001387F7FF2322E4FEF5FB8327C4FD9C43B5
:101A4000BD8B0547B317F70093960701C182832723
:101A5000C4FD9C4313D75700B70700200A0793879C
:101A6000C704BA979C433687D8CB8347F4FEE396E6
:101A700007EE0325C4FDA933AA87FD17B337F0008D
:101A800093F7F70F3E85B250225445618280397139
:101A900006DE22DC26DA80002326A4FCAE87A3051E
:101AA000F4FC8327C4FCB337F00093F7F70F3E87AD
:101AB0001306000CE5679385471F3A85EF203065D4
:101AC000A30704FEA1472307F4FE8327C4FC9C431D
:101AD000BD8B0547B317F70093960701C182832793
:101AE000C4FC9C4313D75700B70700200A0793870D
:101AF000C704BA979C433687D8CB8327C4FCDC47FE
:101B00002324F4FE0100832784FE1387F7FF232498
:101B1000E4FEF5FB8327C4FCDC43BD8B0547B3170C
:101B2000F70093960701C1828327C4FCDC4313D7D7
:101B30005700B70700200A079387C704BA979C434A
:101B4000368798CB7DA88327C4FC9C43BD8B054773
:101B5000B317F70093960701C1828327C4FC9C4307
:101B600013D75700B70700200A079387C704BA970F
:101B70009C433687D8CB8327C4FCDC472322F4FE62
:101B80000100832744FE1387F7FF2322E4FEF5FBC1
:101B90008327C4FC9C43BD8B0547B317F70093967E
:101BA0000701C1828327C4FC9C4313D75700B707A2
:101BB00000200A079387C704BA979C43368798CBBF
:101BC0008327C4FCDC472320F4FE0100832704FEA6
:101BD0001387F7FF2320E4FEF5FB8347F4FE860717
:101BE00093948701E1848327C4FCDC433E85EFE0C6
:101BF0007FE3AA87E207E187C58FE207E187A307B2
:101C0000F4FE8347E4FE1387F7FF2307E4FE85FF16
:101C10008327C4FC9C43BD8B0547B317F7009396FD
:101C20000701C1828327C4FC9C4313D75700B70721
:101C300000200A079387C704BA979C433687D8CBFE
:101C40008327C4FCDC47232EF4FC01008327C4FD5A
:101C50001387F7FF232EE4FCF5FB8347B4FCBE8516
:101C60000325C4FCEFF07F9C8347F4FE3E85F250D1
:101C70006254D25421618280011106CE22CC001020
:101C80002326A4FEAE873287A305F4FEBA87230578
:101C9000F4FE8327C4FEB337F00093F7F70F3E87B7
:101CA00013062029E5679385471F3A85EF203046C4
:101CB0000325C4FEEFF0CFF08327C4FE83C787005F
:101CC000860793F7F70FBE850325C4FE9139834736
:101CD000B4FEBE850325C4FEA1318347A4FEBE85A4
:101CE0000325C4FE35390325C4FEEFF0EFFF0100E4
:101CF000F240624405618280797106D622D40018D0
:101D0000232EA4FCAE87A30DF4FC8327C4FDB337B8
:101D1000F00093F7F70F3E871306402AE567938597
:101D2000471F3A85EF20B03EA30704FE0325C4FDFC
:101D3000EFF00FE98327C4FD83C78700860793F779
:101D4000F70FBE850325C4FDE13E8347B4FDBE8584
:101D50000325C4FDF1360325C4FDEFF0EFF803259C
:101D6000C4FDEFF0EFE58327C4FD83C78700860736
:101D7000E207E18793E71700E207E18793F7F70FA0
:101D8000BE850325C4FD693E85450325C4FD013399
:101D9000AA87A307F4FE0325C4FDEFF0EFF4834701
:101DA000F4FE3E85B250225445618280797106D698
:101DB00022D400182326A4FEAE872322C4FE2320AB
:101DC000D4FE232EE4FCA305F4FE8327C4FEB33720
:101DD000F00093F7F70F3E871306F02BE567938526
:101DE000471F3A85EF20B032032704FE8327C4FD46
:101DF000B307F740B337F00093F7F70F3E871306AA
:101E0000002CE5679385471F3A85EF2050308327E4
:101E1000C4FE032704FE98C38327C4FE0327C4FD22
:101E2000D8C38327C4FE0347B4FE2384E700832777
:101E3000C4FE032744FED8C7C14605468545032591
:101E400004FEEFE0FFC8D146054685450325C4FDE5
:101E5000EFE01FC80100B250225445618280011199
:101E600022CE00102326A4FEAE873287A305F4FEFF
:101E7000BA872305F4FEE9670327C4FE0A079387A0
:101E80000787BA979C433E878347B4FEC207C18346
:101E90002316F7000100E9670327C4FE0A079387AA
:101EA0000787BA979C4383D78700C207C18393F7FC
:101EB0000708F5F3E9670327C4FE0A079387078736
:101EC000BA979C4383D7C700E9670327C4FE0A0774
:101ED00093870787BA979C433E878347A4FEC20730
:101EE000C1832316F7000100E9670327C4FE0A0730
:101EF00093870787BA979C4383D78700C207C1831C
:101F000093F70708F5F3E9670327C4FE0A079387E9
:101F10000787BA979C4383D7C700010072440561C5
:101F20008280011122CE00102326A4FEAE87232238
:101F3000C4FE2320D4FEA305F4FEE9670327C4FEF4
:101F40000A0793870787BA979C433E878347B4FE67
:101F5000C207C1832316F7000100E9670327C4FE07
:101F60000A0793870787BA979C4383D78700C207DE
:101F7000C18393F70708F5F3B9A0832744FE1387BD
:101F800017002322E4FE83C60700E9670327C4FE87
:101F90000A0793870787BA979C433E879397060162
:101FA000C1832316F7000100E9670327C4FE0A076F
:101FB00093870787BA979C4383D78700C207C1835B
:101FC00093F70708F5F3832704FE1387F7FF232011
:101FD000E4FEC5F70100724405618280011122CE42
:101FE00000102326A4FEAE872322C4FE2320D4FEA5
:101FF000A305F4FEE9670327C4FE0A079387078752
:10200000BA979C433E878347B4FEC207C183231619
:10201000F7000100E9670327C4FE0A0793870787D3
:10202000BA979C4383D78700C207C18393F70708F9
:10203000F5F3E9670327C4FE0A0793870787BA9772
:102040009C4383D7C70095A0E9670327C4FE0A070E
:1020500093870787BA979C43239607000100E96797
:102060000327C4FE0A0793870787BA979C4383D741
:102070008700C207C18393F70708F5F3E9670327D1
:10208000C4FE0A0793870787BA979C4383D7C70084
:1020900093960701C182832744FE138717002322EA
:1020A000E4FE13F7F60F2380E700832704FE13876F
:1020B000F7FF2320E4FEC9FB010072440561828022
:1020C0005D7186C6A2C480082326A4FC2324B4FC28
:1020D0002322C4FC2320D4FC232EE4FA232CF4FA7C
:1020E000232A04FBE9670327C4FC0A0793870787B1
:1020F000BA979C433E85EF60102D85450545EF60FE
:10210000101B032704FC93073012631DF7000327FD
:10211000C4FB930750126317F70085450545EF6030
:10212000401F25A0032704FC89679387A714631E1B
:10213000F7000327C4FB89679387C7146317F70069
:10214000854537152000EF60C01C8327C4FC91E74C
:1021500085450565EF60B01525A00327C4FC8547BC
:102160006317F70085451165EF60D01811A80327A4
:10217000C4FC89476316F70085452165EF60901719
:10218000832704FC93F7F70F9306803105468545B6
:102190003E85EFE0FF938327C4FB93F7F70F930689
:1021A0008031054685453E85EFE09F92032784FBFD
:1021B000C167F917630DF700832784FB93F7F70FC7
:1021C00093068034054681453E85EFE07F900327E6
:1021D00044FB9307F00F630DF700832744FB93F74D
:1021E000F70F93060031014685453E85EFE05F8E8F
:1021F000232E04FC232004FE232204FE232404FEB9
:10220000231604FE231E04FC93074010231FF4FC36
:10221000231004FE032784FC85476305F702832708
:1022200084FC81CF032784FC89476303F7020327DB
:1022300084FC8D476304F7020DA8231104FE2312CA
:1022400004FE25A0231104FE85472312F4FE31A8C5
:1022500089472311F4FE231204FE01A889472311A4
:10226000F4FE85472312F4FE0100231704FE03A7A2
:102270000182832744FCB357F7022317F4FE03A718
:102280000182832744FCB377F70291E78357E4FE8A
:10229000FD172317F4FE0357E4FE9307F00763F7D7
:1022A000E700930780032317F4FE49A80357E4FED1
:1022B0009307F00363F7E700930700032317F4FE87
:1022C000B5A80357E4FEFD4763F7E70093078002D4
:1022D0002317F4FEA5A00357E4FEBD4763F7E7000C
:1022E000930700022317F4FE91A80357E4FE9D47CD
:1022F00063F6E700E1472317F4FE89A00357E4FEE5
:102300008D4763F6E700C1472317F4FE05A803577E
:10231000E4FE854763F6E700A1472317F4FE39A8DA
:102320008357E4FE81C7231704FE09A81306702112
:10233000E567938587240145EF20605D8357E4FEC0
:102340002314F4FE930700202313F4FE231504FE48
:102350009D472316F4FEE9670327C4FC0A07938709
:102360000787BA979C433E879307C4FDBE853A858D
:10237000EF60D00CE9670327C4FC0A07938707873F
:10238000BA979C4385453E85EF60D01A0100B64060
:10239000264461618280797122D60018232EA4FC24
:1023A000232CB4FC8547A307F4FE0327C4FD0A07CA
:1023B0009387C197BA979C4399EB0327C4FD0A07FB
:1023C0009387C197BA97032784FD98C315A0032765
:1023D000C4FD0A079387C197BA979C43032784FDDE
:1023E0006316F7008547A307F4FE19A0A30704FEB0
:1023F0008347F4FE3E85325445618280011106CE4A
:1024000022CC00102326A4FE8327C4FE81EB854541
:10241000856713850780EF6080696DA80327C4FE78
:1024200085476317F70085450545EF60A06C5DA003
:102430000327C4FE89476317F70085450945EF6008
:10244000606B49A80327C4FE8D476317F7008545D5
:102450001145EF60206ABDA80327C4FE91476317AA
:10246000F70085452145EF60E068ADA00327C4FE75
:1024700095476317F70085454145EF60A06799A828
:102480000327C4FE99476318F7008545130500022A
:10249000EF60406681A00327C4FE9D476317F700E5
:1024A00085450965EF60A06035A00327C4FEA147FC
:1024B0006318F700854537050800EF60405F19A8ED
:1024C0000327C4FEA5476317F700854537051000AD
:1024D000EF60E05D0100F240624405618280797145
:1024E00022D60018232EA4FCB7370140938707C0DB
:1024F0002326F4FE231504FE0327C4FDA54763EC41
:10250000E7088327C4FD13972700E9679387C787E8
:10251000BA979C438287B7370140938707C0232629
:10252000F4FE95A8B70700402326F4FEADA0B70738
:102530000040938707402326F4FEB1A8B717004058
:10254000938707802326F4FEB9A0B717004093872E
:1025500007C02326F4FE81A0B71700402326F4FE0F
:102560001DA8B7170040938707402326F4FE25A037
:10257000B7370140938707402326F4FE29A8B757B1
:102580000140938707C02326F4FE31A0B7570140CE
:102590002326F4FE01000327C4FD0A079387419A0E
:1025A000BA9798438947631FF7008327C4FE83D7F0
:1025B00047021397070141838D47B357F70223154D
:1025C000F4FE39A08327C4FE83D747022315F4FE07
:1025D0008357A4FE3E85325445618280797122D6AC
:1025E0000018232EA4FCB7370140938707C0232689
:1025F000F4FE0327C4FDA54763ECE7088327C4FD69
:1026000013972700E9679387478ABA979C43828785
:10261000B7370140938707C02326F4FE95A8B70774
:1026200000402326F4FEADA0B70700409387074083
:102630002326F4FEB1A8B71700409387078023260E
:10264000F4FEB9A0B7170040938707C02326F4FE15
:1026500081A0B71700402326F4FE1DA8B71700403D
:10266000938707402326F4FE25A0B73701409387C0
:1026700007402326F4FE29A8B7570140938707C0D7
:102680002326F4FE31A0B75701402326F4FE0100B3
:102690008327C4FE239207020100325445618280E1
:1026A000011122CE00102326A4FEAE87A305F4FE5E
:1026B0000100E9670327C4FE0A079387C78CBA970E
:1026C0009C4383D70700C207C18393F70708F5D35C
:1026D000E9670327C4FE0A079387C78CBA979C4310
:1026E0003E878347B4FEC207C1832312F70001006F
:1026F000724405618280011106CE22CC001023268F
:10270000A4FE2324B4FE2322C4FE832784FEB33711
:10271000F00093F7F70F3E8713061004E5679385E3
:1027200087293A85EF20A01E29A8832784FE1387D6
:1027300017002324E4FE83C70700BE850325C4FEDB
:102740008537832744FE1387F7FF2322E4FEF1FF3A
:102750000100F240624405618280011106CE22CC64
:1027600000102326A4FE2324B4FE832784FEB3375F
:10277000F00093F7F70F3E8713060005E567938592
:1027800087293A85EF20A01839A8832784FE13876C
:1027900017002324E4FE8387070093F7F70FBE8515
:1027A0000325C4FEF53D832784FE83870700F1FFE0
:1027B0000100F240624405618280011106CE22CC04
:1027C00000102326A4FEAE87A305F4FEE9670327C5
:1027D000C4FE0A079387C78CBA979C433E878347FA
:1027E000B4FE3E86930550523A85EF70C05A138767
:1027F00081898327C4FEBA9783C7070081453E8538
:10280000EF30B0228347B4FE81CF138781898327BD
:10281000C4FEBA9783C707003E85EF30501D19A844
:10282000138781898327C4FEBA9783C707003E8533
:10283000EF30D01D0100F240624405618280011139
:1028400022CE00102326A4FE2324B4FEE96703272A
:10285000C4FE0A079387C78CBA979C4383D70700A7
:10286000C207C18393F707028DC7E9670327C4FE38
:102870000A079387C78CBA979C4383D74700C20740
:10288000C18313F7F70F832784FE2380E700854772
:1028900011A081473E85724405618280797106D618
:1028A00022D40018232EA4FC232CB4FC232AC4FC1D
:1028B0002328D4FC032744FD832704FD3D8F832771
:1028C000C4FDB207F98F93B7170093F7F70F3E8750
:1028D0001306A00AE567938587293A85EF20200330
:1028E000832744FD13D78700832704FDA183B30703
:1028F000F74093B7170093F7F70F3E871306B00A18
:10290000E567938587293A85EF206000832744FD9A
:1029100093F7F70FE146014685453E85EFE04F9B73
:10292000832704FD93F7F70F930680040146814542
:102930003E85EFE0EF9985450545EF604017032799
:1029400044FDC167FD17F98F0D67130707386387CB
:10295000E7200D67130707386369F7040567130756
:1029600057166381E716056713075716636FF7005D
:102970001307F022638AE70C130760306381E710C6
:10298000130760126388E70865A60967130787368F
:10299000638BE7160D67130707126387E71809674C
:1029A0001307A7146380E71461A615671307A738F8
:1029B000638EE72615671307A7386362F70211676E
:1029C000130787386380E72015671307871263852D
:1029D000E722116713074712638CE71A91AE196754
:1029E0001307C7386388E72A19671307C73863686E
:1029F000F7001967130767106384E72615AE1D6794
:102A00001307E7106382E72C1D671307E738638716
:102A1000E72E39AEB7070140D44FB707014037075B
:102A200000FC7D17758FD8CFB7070140D843B70793
:102A300001406D9BD8C3B7070140D843B707014099
:102A400013674700D8C3EDA4B7070140D44FB707B9
:102A50000140370700FC7D17758FD8CFB7070140BD
:102A6000D44FB707014037070004558FD8CFB707B9
:102A70000140D843B70701406D9BD8C355ACB70799
:102A80000140D44FB7070140370700FC7D17758F11
:102A9000D8CFB7070140D44FB7070140370700042C
:102AA000558FD8CFB7070140D843B70701406D9B7A
:102AB000D8C3B7070140D843B707014013674700A1
:102AC000D8C3BDA4B7070140D843B70701405D9BF9
:102AD000D8C3B7070140D843B70701401367870041
:102AE000D8C3B9A4B7070140D843B707014013774B
:102AF000F7FCD8C3B7070140D843B70701401367B5
:102B00000701D8C335A4B7070140D843B707014030
:102B10001377F7FCD8C3B7070140D843B707014084
:102B200013670703D8C329A4B7070140D44FB707D9
:102B300001403707FDFF7D17758FD8CFB7070140DC
:102B4000D44F832744FDA18313970701B7070300E0
:102B50007D8FB7070140558FD8CFD9AAB70701405D
:102B6000D44FB70701403707FDFF7D17758FD8CFCA
:102B7000B7070140D44F832744FDA1831397070172
:102B8000B70703007D8FB7070140558FD8CF4DA2FF
:102B9000B7070140D44FB70701403707F4FF7D174F
:102BA000758FD8CFB7070140D44F832744FDA18349
:102BB00013972701B7070C007D8FB7070140558F8A
:102BC000D8CFBDA2B7070140D44FB70701403707A0
:102BD000F4FF7D17758FD8CFB7070140D44F8327F7
:102BE00044FDA18313972701B7070C007D8FB7071A
:102BF0000140558FD8CF2DAAB7070140D44FB70752
:102C000001403707D0FF7D17758FD8CFB707014038
:102C1000D44F832744FDA18313974701B7073000A2
:102C20007D8FB7070140558FD8CF19A2B707014054
:102C3000D44FB70701403707D0FF7D17758FD8CF26
:102C4000B7070140D44F832744FDA1831397470161
:102C5000B70730007D8FB7070140558FD8CFC9A87F
:102C6000B7070140D44FB7070140370740FF7D1732
:102C7000758FD8CFB7070140D44F832744FDA18378
:102C800013976701B707C0007D8FB7070140558FC5
:102C9000D8CF79A8B7070140D44FB707014037070D
:102CA00040FF7D17758FD8CFB7070140D44F8327DA
:102CB00044FDA18313976701B707C0007D8FB70755
:102CC0000140558FD8CFADA0B7070140D44FB7070B
:102CD0000140370700FD7D17758FD8CFB70701403A
:102CE000D44F832744FDA18313978701B7070003BF
:102CF0007D8FB7070140558FD8CF1DA8B70701407A
:102D0000D44FB7070140370700FD7D17758FD8CF27
:102D1000B7070140D44F832744FDA1831397870150
:102D2000B70700037D8FB7070140558FD8CF01004B
:102D30008327C4FD91E785451165EF50505769A879
:102D40000327C4FD85476318F70085453705020052
:102D5000EF50505A51A00327C4FD89476318F7006C
:102D6000854537050400EF50F058BDA00327C4FD8A
:102D70008D476318F700854537050800EF509057D9
:102D8000A1A80327C4FD91476318F70085453705BF
:102D90001000EF50305689A00327C4FD95476318F3
:102DA000F700854513050004EF50D05435A00327E4
:102DB000C4FD99476318F700854513050008EF50D7
:102DC000705319A80327C4FD9D476317F700854575
:102DD00013050010EF501052232004FE232204FE9E
:102DE000232404FE232604FE832784FD2320F4FEEF
:102DF000231204FE231304FE231404FE231604FEF0
:102E0000B1472315F4FEE9670327C4FD0A0793873A
:102E1000C78CBA979C433E87930704FEBE853A85CC
:102E2000EF60304EE9670327C4FD0A079387C78C1C
:102E3000BA979C4385453E85EF60F06F0100B25024
:102E4000225445618280411106C622C4000883A72E
:102E5000C18A0547638BE7006388070C0947638DC8
:102E6000E7000D47638FE702E9A083A7818A1387F4
:102E7000170023A4E18A75A883A7818A1387170006
:102E800023A4E18A03A7818AA54763F1E70AB7076C
:102E900000209387C7049C4B1167D8CB23A4018AD9
:102EA00071A003A7018B85476314F7081305F00889
:102EB000EFD05FB7AA87ADC31945EFF04FE2AA87FD
:102EC0003E8783A7818A1D8F9307600963F2E70617
:102ED0001945EFF0AFF083A7818AD3F717D0538558
:102EE000F720EF208165E56703A6872E83A6C72E0E
:102EF000EF10012AAA872E883E85C285EF20A14CBB
:102F0000AA87139707014183B7070020239CE73264
:102F1000094723A8E18A29A81945EFF04FDCAA87C1
:102F20003E8723A4E18A29A0010021A0010011A06D
:102F300001000100B240224441018280411106C6D5
:102F400022C4000883A7C18A0947637CF7000D47A4
:102F5000639AE7001945EFF06FE8054723A8E18A77
:102F600011A001000100B240224441018280011100
:102F700006CE22CC0010232204FE83C7518B63812E
:102F8000071409A8930734FE0546BE851385C19C26
:102F9000EF20E03C930734FEBE851D45EFF03F8AED
:102FA000AA87EDF3034734FEA947631BF71099473F
:102FB0002322F4FE130744FE930784FE85463A86D7
:102FC000BE851385C19CEF203018930784FE1387BC
:102FD00037000D46E5679385072F3A85EF30A17DD1
:102FE000AA879DEB03A7C18B89476304F70C0547AC
:102FF00023AEE18A1385C19CEF20C008AA87232253
:10300000F4FE930744FE81463E86938581A6138590
:10301000C19CEF20701371A8930784FE13873700BB
:103020000D46E5679385472F3A85EF30C178AA872B
:103030009DEB03A7818B8947630DF706054723ACFA
:10304000E18A1385C19CEF20E003AA872322F4FEC6
:10305000930744FE81463E869385819E1385C19CDD
:10306000EF20900EB9A0930784FE138737000D461A
:10307000E5679385872F3A85EF30E173AA8795EB53
:1030800003A7018C89476306F702054723A0E18C5B
:103090001385C19CEF10107FAA872322F4FE9307AB
:1030A00044FE81463E86938581AE1385C19CEF2008
:1030B000B0091385C19CEF1050580547238AE18A57
:1030C0000100F240624405618280011106CE22CCEB
:1030D0000010AA872E87A307F4FEBA872307F4FE01
:1030E000B70700209387C7049C4713070040D8CB3D
:1030F0000347E4FE8347F4FE3A86BE850945EFE0C8
:103100001FD6B70700209387C7049C4713070040CA
:1031100098CB0100F240624405618280011106CE25
:1031200022CC0010AA872324B4FE2322C4FEA307C6
:10313000F4FEB70700209387C7049C47130700409D
:10314000D8CB8347F4FE832644FE032684FEBE8547
:103150000945EFE01FDDB70700209387C7049C47B0
:103160001307004098CB0100F24062440561828061
:10317000797106D622D40018AA87A30FF4FCB707EA
:1031800000209387C7049C4713070040D8CB834790
:10319000F4FD93E707F893F7F70F1307C4FE89468A
:1031A0003A86BE850945EFE07FE3B70700209387A5
:1031B000C7049C471307004098CB8347D4FE3E8545
:1031C000B250225445618280797106D622D400180B
:1031D000AA87232CB4FC232AC4FCA30FF4FCB70752
:1031E00000209387C7049C4713070040D8CB834730
:1031F000F4FD93E707F813F7F70F832744FD938651
:103200001700930744FE3E86BA850945EFE01FDDAF
:10321000B70700209387C7049C471307004098CB4B
:10322000232604FE3DA08327C4FE138717008327AF
:1032300084FD93861700232CD4FC930604FF369755
:10324000034747FF2380E7008327C4FE8507232623
:10325000F4FE8327C4FE032744FDE3E6E7FC0100F8
:10326000B250225445618280011106CE22CC00105A
:10327000A30504FEA30704FE231604FE8357C4FE21
:10328000138717002316E4FE1307F00F6376F70089
:103290008547A307F4FE39A80145D93DAA87A305B0
:1032A000F4FE0545EFD04F800347B4FE930740027C
:1032B000E316F7FC8347F4FE3E85F2406244056165
:1032C0008280011106CE22CC0010930784FE19469D
:1032D000BE854945D53D834794FEA2071397070154
:1032E0004187834784FEC207C187D98F139707019F
:1032F00041872392E18C8347B4FEA207139707010D
:1033000041878347A4FEC207C187D98F139707015E
:1033100041872393E18C8347D4FEA20713970701CB
:1033200041878347C4FEC207C187D98F139707011E
:1033300041872394E18C0100F24062440561828060
:10334000011106CE22CC0010A30704FE5145EFC0A8
:10335000BFF51308F00F89679387470209671307C2
:1033600057028966938636023796980013060668D8
:1033700081450945EFE0DFD4C14605468545130583
:10338000A004EFD0EFF40145E533F93DAA8785C3EA
:103390009306600EE5671386073EE567938547430E
:1033A0000145EF10405D8547A307F4FE7DA88145E8
:1033B0001305C007193B0545EFC01FEF81451305F5
:1033C000900521330966E967938507C21305E00577
:1033D000B133854513059005CD395145EFC0DFEC7C
:1033E000130510027133AA873E8785476301F702F0
:1033F0009306500FE5671386073EE56793850745FB
:103400000145EF1040578547A307F4FEB9A8B94519
:103410001305D0075D399305700A13050004753153
:103420009305900A130520044D31894513051004B6
:103430006939B707002065678727874627AEF732C7
:1034400001000347F4FE85476300F7028145130539
:103450003004A539B70700209387C73365678727EE
:10346000C746DCE3010011A001008347F4FE3E855E
:10347000F240624405618280397106DE22DC800000
:103480002326A4FC8547A307F4FE231304FE23167A
:1034900004FE232404FE232E04FC83D7018D3E87E3
:1034A000930700236316F700A5472324F4FE29A001
:1034B000A1472324F4FE01008DA8930750FA2300AE
:1034C000F4FE832784FE8A070327C4FCBA978397F8
:1034D000070093F7F70FA300F4FE832784FE8A0703
:1034E0000327C4FCBA97839727002313F4FE83575E
:1034F00064FEA183C207C18393F7F70F2301F4FE93
:10350000835764FE93F7F70FA301F4FE930704FEBD
:103510001146BE851145EFF00F9E0945EFC0DFD87B
:10352000832784FEFD172324F4FE032784FE9307DC
:10353000E00FE3F4E7F883A7C18C3E85EF109034E9
:103540002A87894763FFE7028D47232EF4FC83A770
:10355000C18C1306C4FD130704FE8146BA853E855F
:10356000EF20803E034714FE9307F00F6308F70037
:10357000034724FE9307F00F6315F700A30704FE2B
:1035800031A80545EFC05FD28357C4FE13871700EB
:103590002316E4FE1307700CE37FF7F88347F4FE6D
:1035A0003E85F250625421618280797106D622D420
:1035B0000018232EA4FCA30704FE230704FE2315F2
:1035C00004FE231604FE232004FE83D7018D3E87CC
:1035D000930700236316F700A547A307F4FE29A06D
:1035E000A147A307F4FE01008347F4FEFD1793F7FC
:1035F000F70FA307F4FE11AA03D7018D9307F0225A
:1036000063EDE7008307F4FE8A070327C4FDBA973A
:1036100003970700A5476300F70E930750FA2302AC
:10362000F4FEC557A302F4FE8307F4FE8A070327BE
:10363000C4FDBA97839707002315F4FE8357A4FEB1
:10364000A183C207C18393F7F70F2303F4FE8357C7
:10365000A4FE93F7F70FA303F4FE930744FE11466D
:10366000BE851145EFF02F89231604FE83A7C18C78
:103670003E85EF1030212A87894763F7E7048D479D
:103680002320F4FE83A7C18C130604FE130744FE17
:103690008146BA853E85EF20202B834754FEA20742
:1036A00093960701C186834764FE139707014187FC
:1036B0008307F4FE8A070326C4FDB297558F42079D
:1036C00041872391E70031A80545EFC0FFBD83572F
:1036D000C4FE138717002316E4FE1307700CE3776C
:1036E000F7F80357C4FE9307800C63F7E70085479C
:1036F0002307F4FE39A801008307F4FE93F7F70FC0
:10370000FD1793F7F70FA307F4FE8307F4FEE3D545
:1037100007EE8347E4FE3E85B25022544561828025
:10372000011106CE22CC0010232404FE8547A307F6
:10373000F4FE231604FE232204FE83A7C18C3E85DB
:10374000EF105014AA8791C783A7C18C3E85EF1054
:10375000C06E9305F00F1145EFE09FF4930750FA08
:103760002304F4FEBD57A304F4FE230504FEA305C1
:1037700004FE930784FE1146BE851145EFE0BFF7B6
:10378000231604FE83A7C18C3E85EF10B00F2A8755
:10379000894763F0E7048D472322F4FE83A7C18C99
:1037A000130644FE130784FE8146BA853E85EF204A
:1037B000A0190347A4FE85476309F7000347A4FE49
:1037C00089476304F700854711A08147A307F4FEEA
:1037D00031A80545EFC05FAD8357C4FE13871700BE
:1037E0002316E4FE1307700CE37EF7F88347F4FE1C
:1037F0003E85F240624405618280011106CE22CCF2
:103800000010A30704FE9307F4FEBE851145EFF0F8
:103810000F8383A7C18C85C70347F4FE9307500A23
:103820006317F70083A7C18C3E85EF10006183A763
:10383000C18C0347F4FEBA853E85EF10500C0100A1
:10384000F240624405618280411122C600080547AA
:103850002385E18C0100324441018280011106CEB2
:1038600022CC0010231704FE231604FE232204FE9C
:10387000930750FA2304F4FEC557A304F4FE23056E
:1038800004FEC957A305F4FE930784FE1146BE85C6
:103890001145EFE05FE683A7C18C3E85EF10807E87
:1038A0002A87894763F0E7048D472322F4FE83A724
:1038B000C18C130644FE130784FE8146BA853E85FB
:1038C000EF208008834794FEA207139707014187E2
:1038D0008347A4FEC207C187D98FC207C1872316B9
:1038E000F4FE31A80545EFC03F9C8357E4FE1387E3
:1038F00017002317E4FE1307700CE37EF7F88357D5
:10390000C4FE3E85F2406244056182805D7186C6D8
:10391000A2C480088547A307F4FE054723A6E180DB
:103920009307C4FD1307C004930620061306401F27
:1039300081453E85EFE08FC79307C4FD3E85EFE0EC
:103940007055AA87B5EFE56703AE874F1387874F9A
:10395000032347001387874F832887001387874FE8
:103960000328C7001387874F084B1387874F4C4B9B
:103970001387874F104F1387874F544F1387874FF5
:1039800018539387874FDC53232AC4FB232C64FAF4
:10399000232E14FB232004FD2322A4FC2324B4FCA7
:1039A0002326C4FC2328D4FC232AE4FC232CF4FC87
:1039B000930744FB3E85EFE0D053AA87A307F4FEAC
:1039C0008347F4FE3E85B64026446161828059718A
:1039D00086D6A2D480188547A307F4FE230704FEE9
:1039E000232404FE23A6018013050004EF10317D7B
:1039F000AA872324F4FE832784FE85E393067020A0
:103A0000E56713860747E5679385874C0145EF0017
:103A100090768947A307F4FE3DAC6545EF10317AF7
:103A2000AA873E8723A6E18C83A7C18C85E79306EE
:103A3000E020E56713860747E5679385474E014514
:103A4000EF007073032584FEEF1011788947A307F8
:103A5000F4FE11A483A7C18C93060004032684FE00
:103A600081453E85EF2080489167938627069167C0
:103A70001386C7048967938507581145EFE01FE255
:103A800085451145EFE07FD3D13BAA873E87239838
:103A9000E18C83D7018D89CFEFF09FC8AA8789CBAE
:103AA00081451145EFE07FD18D47A307F4FE65A264
:103AB000E56703AE874F1387874F032347001387BC
:103AC000874F832887001387874F0328C7001387F2
:103AD000874F084B1387874F4C4B1387874F104FE7
:103AE0001387874F544F1387874F18539387874FF8
:103AF000DC532320C4FD232264FC232414FD23264D
:103B000004FD2328A4FC232AB4FC232CC4FC232E6C
:103B1000D4FC2320E4FE2322F4FEE56703A38755AB
:103B20001387875583284700138787550328870005
:103B3000138787554847138787550C4B138787553D
:103B4000504B13878755144F13878755584F9387CA
:103B500087559C53232E64F8232014FB232204FB57
:103B60002324A4FA2326B4FA2328C4FA232AD4FA55
:103B7000232CE4FA232EF4FA930704FC3E85EFF09D
:103B8000BF8FAA8785C79306B024E56713860747CA
:103B9000E567938507520145EF00F05D81451145CA
:103BA000EFE0BFC18547A307F4FE75A09307C4F9F2
:103BB0003E85EFF09F9FAA8785C793067025E5672E
:103BC00013860747E5679385C7530145EF00B05A51
:103BD00081451145EFE07FBE8547A307F4FEA5A808
:103BE000230704FEA1A88347E4FE85078A0713077D
:103BF00004FFBA97039707FD8347E4FE8A079306FD
:103C000004FFB6978397C7FA631FF7028347E4FE62
:103C100085078A07130704FFBA97039727FD834791
:103C2000E4FE8A07930604FFB6978397E7FA631CBE
:103C3000F7008347E4FE85072307F4FE0347E4FE0D
:103C4000A147E3F2E7FA8347E4FE93B7870093F7CF
:103C5000F70FA307F4FE032584FEEF10F15683A7A8
:103C6000C18C3E85EF10515623A6018C8347F4FE8C
:103C70003E85B650265465618280797106D622D47D
:103C80000018A30704FEB747000013868784814508
:103C90000D456928EFF09FC7AA8785C3B747000085
:103CA00013868784B73700009385A77F0D45BD280D
:103CB000EFF0FFD1AA87A307F4FE8347F4FEA9E73C
:103CC00091473EC495473EC299473EC09308900233
:103CD00013088002930760021307B0049306900450
:103CE00013068004A9452545EFC02FE6930600087A
:103CF0001566B70700209385076AB707002013856C
:103D0000076AEFC0AFF429A0014681450145392873
:103D10008347F4FE3E85B2502254456182804111B2
:103D200022C600080100324441018280011122CEE6
:103D300000102326A4FE2324B4FE2322C4FE03275E
:103D4000C4FE23AAE18C832744FE81C7832744FE57
:103D500029A0B74700009387E7D123AAF1808327E2
:103D600084FE81C7832784FE29A0B747000093877C
:103D7000E7D123A8F180010072440561828001111E
:103D800022CE00102326A4FE2324B4FE0327C4FE63
:103D900023ACE18C832784FE81C7832784FE29A07E
:103DA000B74700009387E7D123ACF180010072444C
:103DB00005618280797106D622D40018AA87A30FE4
:103DC000F4FC930740062317F4FE35A01305800882
:103DD000EFC05FC5AA8781EB8347F4FDBE85194517
:103DE000EFE01F8C21A88357E4FEFD172317F4FE94
:103DF0000545EFC06FCB8357E4FEE9FB8357E4FE34
:103E0000B337F00093F7F70F3E85B2502254456167
:103E10008280797106D622D40018232EA4FC232C8C
:103E2000B4FC231704FEBDA013058008EFC09FBF9C
:103E3000AA87B9E3032784FDF54763F5E7027946CE
:103E40008325C4FD1945EFE01F8B8327C4FDF907C7
:103E5000232EF4FC832784FD8917232CF4FC2317DD
:103E600004FE0DA8032684FD8325C4FD1945EFE05B
:103E70009F88232C04FC25A08357E4FE8507231785
:103E8000F4FE0357E4FE9307300663E9E7000545B7
:103E9000EFC08FC1832784FDC1FB11A001008327E0
:103EA00084FD3E85B250225445618280797106D6E8
:103EB00022D40018232EA4FC231704FE0325C4FDDE
:103EC000EF20510E2324A4FEBDA013058008EFC0EF
:103ED0007FB5AA87B9E3032784FEF54763F5E702B8
:103EE00079468325C4FD1945EFE0FF808327C4FD93
:103EF000F907232EF4FC832784FE89172324F4FE7C
:103F0000231704FE0DA8032684FE8325C4FD19454E
:103F1000EFE06FFE232404FE25A08357E4FE85070F
:103F20002317F4FE0357E4FE9307300663E9E70026
:103F30000545EFC06FB7832784FEC1FB11A00100C8
:103F4000832784FE3E85B250225445618280411110
:103F500006C622C400089385C18D1945EFE03F8E47
:103F60001385C18DEFD060210100B2402244410190
:103F70008280011106CE22CC0010A30704FEB747B1
:103F800000009385E7F40545EFF07FDF930600041A
:103F9000B75700201386C76B8145B757002013859C
:103FA000076AEF10B0749306800405468145130537
:103FB0008008EFC0FFB199679386D7389967138659
:103FC000C738F167938507201945EFE03F8D854598
:103FD0001945EFE08FFE8347F4FE3E85F2406244D0
:103FE00005618280411122C60008B717024098433C
:103FF000B71702401367170098C3B7170240D4439E
:10400000B71702403707FFF8758FD8C3B7170240BC
:104010009443B71702403707F7FE7D17758F98C393
:10402000B71702409443B71702403707FCFF7D17CC
:10403000758F98C3B7170240D443B71702403707AC
:1040400081FF7D17758FD8C3B717024037079F00D0
:1040500098C70100324441018280797106D622D48A
:104060000018232EA4FCBD3F232604FE232404FEB7
:10407000B71702409443B71702404167558F98C362
:10408000B71702409843B7070200F98F2324F4FEC4
:104090008327C4FE85072326F4FE832784FE91E749
:1040A0000327C4FE8567E31DF7FCB717024098435A
:1040B000B7070200F98F89C785472324F4FE19A0AA
:1040C000232404FE032784FE85476312F71637175F
:1040D0000240B71702405843D8C337170240B717FA
:1040E00002405843D8C337170240B717024058431D
:1040F000D8C3B7170240D443B71702403707C1FFF0
:104100007D17758FD8C30327C4FDB74795089387DC
:104110000740631BF700B7170240D443B7170240AC
:104120004167558FD8C355A80327C4FDB717270784
:10413000938707E0631CF700B7170240D443B71713
:10414000024037073900558FD8C341A80327C4FD63
:10415000B7E7B80593870780631CF700B7170240DD
:10416000D443B717024037072900558FD8C3B5A0ED
:104170000327C4FDB7A74A0493870720631CF700F1
:10418000B7170240D443B717024037071D00558FB9
:10419000D8C3A1A00327C4FDB777DC02938707C06B
:1041A000631CF700B7170240D443B7170240370724
:1041B0001100558FD8C315A00327C4FDB7376E0172
:1041C00093870760631BF700B7170240D443B71704
:1041D000024037070500558FD8C3B71702409443F4
:1041E000B717024037070001558F98C30100B71772
:1041F00002409843B7070002F98FF5DBB71702407A
:10420000D843B7170240719BD8C3B7170240D843B1
:10421000B717024013672700D8C30100B717024041
:10422000DC4313F7C700A147E31AF7FE11A001A072
:10423000B250225445618280011106CE22CC00107A
:104240002326A4FE0327C4FE23A0E182EFF09FD91A
:104250000325C4FEEFF07FE0EF20A0050100F2404F
:10426000624405618280411122C6000801000100FC
:10427000324441018280011106CE22CC0010232657
:1042800004FE232404FE232604FE25A0232404FE8A
:1042900039A0D13F832784FE85072324F4FE03271A
:1042A00084FEC167E367F7FE8327C4FE85072326E4
:1042B000F4FE0327C4FE9307F00FE3F9E7FC0100C7
:1042C000F240624405618280411122C6000801006B
:1042D000324441018280011106CE22CC00102326F7
:1042E000A4FE8325C4FE1945EFE02FC70100F2406C
:1042F000624405618280130101D9232611262324FB
:10430000812623229126801C232EA4D8232CB4D8C6
:10431000232AC4D82328D4D8231504FE231404FE4A
:10432000231304FE231204FE231104FE032584D963
:10433000EF204147AA87C207C1872313F4FEB7576E
:10434000002083D7877599C7B75700209387877553
:104350009C4B829783C7E18D93F7F70F6385074ED8
:10436000B757002083D7877563890746B757002062
:1043700093878775D447835724FE13970701418796
:1043800093170701C1838507C207C183C207C1878D
:104390002311F4FE93170701C1830326C4D9BE85F8
:1043A00001458296832784D92326F4FE032584D9E8
:1043B000EF20413FAA87C207C1872313F4FEB757F6
:1043C00000209387877583D727003E87B757002043
:1043D0009387877583C76700B347F702C207C18712
:1043E0002312F4FE01008327C4FE1387170023263F
:1043F000E4FE83870700E5FB231404FEA1A88327BE
:10440000C4FEFD172326F4FE8327C4FE038707009E
:104410009307F002630AF7008327C4FE03870700AF
:104420009307C005631BF700835784FEC207C1834F
:104430008507C207C1832314F4FE835764FEC207B5
:10444000C187C207C183FD17C207C183C207C187E5
:104450002313F4FE835784FE139707014183854796
:1044600063E8E700835764FEC207C187E3D907F812
:10447000835764FEC207C18763C207028327C4FE55
:1044800085072326F4FE130704EE0326C4FEE56722
:104490009385C7573A85EF20812C1DA8835784FE4A
:1044A000C207C18381EF130704EE0326C4FEE5674C
:1044B000938587583A85EF20812A19A8130704EEBF
:1044C0000326C4FEE5679385C7573A85EF20212967
:1044D000231504FE05A2231404FE59A0930704EE3D
:1044E0003E85EF20212C2A87835784FEC207C18393
:1044F000BE868357A4FEC207C1833E86835744FE0F
:10450000C207C187B307F602B6976367F7068357FA
:1045100084FEC207C1833E878357A4FEC207C183BE
:10452000BE86835744FEC207C187B387F602BA9797
:10453000035784FE42074183BA86130704FFBA97E4
:10454000038707EF930704FFB6972388E7EA8357AB
:1045500084FEC207C1838507C207C1832314F4FE0A
:10456000835784FEC207C1833E87835744FEC20738
:10457000C187E345F7F611A00100835784FEC20707
:10458000C183130704FFBA97238807EAB7570020AF
:104590009387877503A8C700B7570020938787754F
:1045A00083C77700139707014183835724FE9396AF
:1045B0000701C18693970601C1838507C207C1839E
:1045C000C207C1872311F4FE93970601C183B30785
:1045D000F702C207C183130704EA3A86BE85014584
:1045E00002988357A4FEC207C1838507C207C1830F
:1045F0002315F4FE8357A4FEC207C183BE8493072C
:1046000004EE3E85EF20011A2A87835744FEC20735
:10461000C187B357F7028507E3EFF4EA130704EE07
:10462000032644D9E567938587593A85EF202113FE
:10463000B75700209387877503A8C700B757002096
:104640009387877583C77700139707014183835743
:1046500024FE93960701C18693970601C1838507BF
:10466000C207C183C207C1872311F4FE93970601D5
:10467000C183B307F702C207C183130704EE3A866A
:10468000BE8501450298832704D9638E071A231536
:1046900004FE05A2231404FE59A0032504D9EF202B
:1046A00061102A87835784FEC207C183BE86835761
:1046B000A4FEC207C1833E86835744FEC207C1875A
:1046C000B307F602B6976368F706835784FEC207FE
:1046D000C1833E878357A4FEC207C183BE8683572A
:1046E00044FEC207C187B387F602BA973E87832785
:1046F00004D9BA97035784FE42074183BA860387D9
:104700000700930704FFB6972388E7EA835784FEE0
:10471000C207C1838507C207C1832314F4FE8357F0
:1047200084FEC207C1833E87835744FEC207C18708
:10473000E345F7F611A00100835784FEC207C18349
:10474000130704FFBA97238807EAB7570020938717
:10475000877503A8C700B75700209387877583C75D
:104760007700139707014183835724FE939607012F
:10477000C18693970601C1838507C207C183C2071B
:10478000C1872311F4FE93970601C183B307F70293
:10479000C207C183130704EA3A86BE850145029821
:1047A0008357A4FEC207C1838507C207C1832315AF
:1047B000F4FE8357A4FEC207C183BE84032504D937
:1047C000EF10517E2A87835744FEC207C187B35733
:1047D000F7028507E3E0F4ECBDA0930704DA1306C3
:1047E000001081453E85EFB0BFA1B75700209387E9
:1047F00087759C470325C4D98297832704D999CF0D
:10480000130504DA032704D9832644D9032684D95F
:10481000E5679385475AEF10917429A8130704DAC6
:10482000832644D9032684D9E5679385075C3A85B6
:10483000EF10F172B7570020938787759847930759
:1048400004DA3E85029701008320C12603248126D5
:1048500083244126130101278280411106C622C408
:10486000000883C7E18D93F7F70F99CF9385D18D1A
:104870001945EFD0DFFC05469385D18DB757002051
:104880001385C773EF00B02D0100B24022444101EF
:104890008280797106D622D40018232EA4FC232C02
:1048A000B4FC232AC4FC232604FEA9A00100E96766
:1048B0009387C78C9C4F930500043E85EF50C05CE6
:1048C000AA87F5D7E9679387C78C9C4FBE86832755
:1048D00084FD13871700232CE4FC83870700C2079D
:1048E000C183BE853685EF5040578327C4FE8507B8
:1048F0002326F4FE0327C4FE832744FDE348F7FA8A
:10490000832744FD3E85B2502254456182800111C7
:1049100006CE22CC0010AA872324B4FE2322C4FE94
:10492000A307F4FE8347F4FEB1E383C7418293F704
:10493000F70F8DCF83C7F18D91C301A083C7F18D90
:10494000850713F7F70FA38FE18CEF10D013EFF06B
:10495000BF978146032644FE832584FEE5671385C1
:10496000875DEFF05F99EFF01F91E5B70100F2402E
:10497000624405618280011106CE22CC0010AA8714
:104980002324B4FE2322C4FE2320D4FEA307F4FE76
:104990008347F4FE95E383C7E18D93F7F70F91CF3B
:1049A000832684FE032604FE832544FEE5671385E3
:1049B000875EEFF05F9411A001000100F2406244B5
:1049C00005618280011122CE00102326A4FE8327D8
:1049D000C4FE239007008327C4FE7D572391E70080
:1049E0008327C4FE7D572392E7008327C4FE7D57AB
:1049F0002383E7008327C4FE7D57A383E700832733
:104A0000C4FE23A407008327C4FE23A60700832730
:104A1000C4FE23A8070001007244056182800111D1
:104A200022CE00102326A4FE8327C4FE03D707004E
:104A3000B7570020239CE7748327C4FE03D72700C1
:104A4000B7570020938787752391E7008327C4FE1B
:104A500003D74700B7570020938787752392E70055
:104A60008327C4FE03C76700B75700209387877565
:104A70002383E7008327C4FE03C77700B7570020CE
:104A800093878775A383E7008327C4FE9847B757AA
:104A900000209387877598C78327C4FED847B757E8
:104AA000002093878775D8C78327C4FE984BB757D4
:104AB00000209387877598CB0547238FE18C0100F1
:104AC000724405618280797106D622D4001893075A
:104AD000C4FD3E85EFF01FEFB74700009387672DB9
:104AE0002322F4FE9307C4FD3E85EFF05FF3996740
:104AF0009386D73899671386C738F167938507205F
:104B00001945EFD0BFD993060004B757002013868C
:104B1000C76F8145B75700201385C773EF10003D5D
:104B200085451945EFD07FC90100B2502254456137
:104B30008280011122CE00102326A4FE2324B4FE7D
:104B40008327C4FE03C7970083C6A700A206558F1C
:104B500083C6B700C206558F83C7C700E207D98F47
:104B60003E87832784FE3E978327C4FE9375F70F05
:104B700083C69700818A3686AE86D18EA384D700FD
:104B80009356870093F5F60F83C6A700818A368671
:104B9000AE86D18E2385D7009356070193F5F60F85
:104BA00083C6B700818A3686AE86D18EA385D700AC
:104BB0001356870103C7C700018BBA863287558F0A
:104BC0002386E70055A08327C4FE03C7970083C64A
:104BD000A700A206558F83C6B700C206558F83C7AC
:104BE000C700E207D98F3E868327C4FE03C757015B
:104BF00083C66701A206558F83C67701C206558F0B
:104C000083C78701E207D98F3307F6408327C4FEA5
:104C10009375F70F83C69700818A3686AE86D18E4C
:104C2000A384D7009356870093F5F60F83C6A70099
:104C3000818A3686AE86D18E2385D70093560701AA
:104C400093F5F60F83C6B700818A3686AE86D18E7D
:104C5000A385D7001356870103C7C700018BBA8607
:104C60003287558F2386E7008327C4FE03C7570189
:104C700083C66701A206558F83C67701C206558F8A
:104C800083C78701E207D98F3E868327C4FE03C707
:104C9000970083C6A700A206558F83C6B700C20639
:104CA000558F83C7C700E207D98FE3FEC7F0010025
:104CB000724405618280011122CE00102326A4FED9
:104CC0002324B4FE8327C4FE03C7D70083C6E700AE
:104CD000A206558F83C6F700C206558F83C707010A
:104CE000E207D98F3E87832784FE3E978327C4FE41
:104CF0009375F70F83C6D700818A3686AE86D18E2C
:104D0000A386D7009356870093F5F60F83C6E70076
:104D1000818A3686AE86D18E2387D70093560701C7
:104D200093F5F60F83C6F700818A3686AE86D18E5C
:104D3000A387D7001356870103C70701018BBA86E3
:104D40003287558F2388E70055A08327C4FE03C709
:104D5000D70083C6E700A206558F83C6F700C206B8
:104D6000558F83C70701E207D98F3E868327C4FE8C
:104D700003C7570183C66701A206558F83C6770113
:104D8000C206558F83C78701E207D98F3307F640E4
:104D90008327C4FE9375F70F83C6D700818A3686B2
:104DA000AE86D18EA386D7009356870093F5F60F73
:104DB00083C6E700818A3686AE86D18E2387D700E8
:104DC0009356070193F5F60F83C6F700818A36865E
:104DD000AE86D18EA387D7001356870103C707017C
:104DE000018BBA863287558F2388E7008327C4FE5C
:104DF00003C7570183C66701A206558F83C6770193
:104E0000C206558F83C78701E207D98F3E86832765
:104E1000C4FE03C7D70083C6E700A206558F83C62A
:104E2000F700C206558F83C70701E207D98FE3FE5B
:104E3000C7F00100724405618280797106D622D4E0
:104E40000018232EA4FC8327C4FDB337F00093F78A
:104E5000F70F3E8713065005E5679385475F3A8550
:104E6000EFF0FFAA232604FE8327C4FD83C70700B3
:104E700093E7170013F7F70F8327C4FD2380E7009C
:104E80008327C4FD03C79700018BA384E70003C7F2
:104E9000A700018B2385E70003C7B700018BA3851B
:104EA000E70003C7C700018B2386E7008327C4FD03
:104EB00003C7D700018BA386E70003C7E700018B78
:104EC0002387E70003C7F700018BA387E70003C729
:104ED0000701018B2388E7008327C4FD03C757011F
:104EE00083C66701A206558F83C67701C206558F18
:104EF00083C78701E207D98F3E878327C4FD937557
:104F0000F70F83C61701818A3686AE86D18EA388B5
:104F1000D7009356870093F5F60F83C62701818A41
:104F20003686AE86D18E2389D7009356070193F536
:104F3000F60F83C63701818A3686AE86D18EA38965
:104F4000D7001356870103C74701018BBA86328702
:104F5000558F238AE7008327C4FD03C7170083C644
:104F60002700A206558F83C63700C206558F83C718
:104F70004700E207D98F0547638DE70489C70947D2
:104F80006380E70AEDA08327C4FD03C7570083C6EB
:104F90006700A206558F83C67700C206558F83C768
:104FA0008700E207D98F3E858327C4FD03C75701D9
:104FB00083C66701A206558F83C67701C206558F47
:104FC00083C78701E207D98F3E868145EFB04FA3A3
:104FD00079A88327C4FD03C7570083C66700A206CC
:104FE000558F83C67700C206558F83C78700E207B7
:104FF000D98F3E858327C4FD03C7570183C6670148
:10500000A206558F83C67701C206558F83C78701D5
:10501000E207D98F86073E868145EFB06F9E81A853
:105020008327C4FD03C7570083C66700A206558FB8
:1050300083C67700C206558F83C78700E207D98FE2
:105040003E858327C4FD03C7570183C66701A206B7
:10505000558F83C67701C206558F83C78701E20744
:10506000D98F8A073E868145EFB08F99010083274B
:10507000C4FD238007008327C4FE3E85B25022541E
:1050800045618280011106CE22CC00102326A4FEA9
:105090008327C4FEB337F00093F7F70F3E8713065C
:1050A0006007E5679385475F3A85EFF05F86832762
:1050B000C4FE03C7570183C66701A206558F83C686
:1050C0007701C206558F83C78701E207D98F3E86D5
:1050D0008327C4FE03C7170183C62701A206558F85
:1050E00083C63701C206558F83C74701E207D98FB0
:1050F000B307F6403E85F2406244056182807971D3
:1051000006D622D40018232EA4FC232CB4FC83271B
:10511000C4FDB337F00093F7F70F3E87130640083E
:10512000E5679385475F3A85EFF06FFE232604FE1F
:105130008327C4FD83C70700958B93F7F70F89C7B3
:1051400091472326F4FE29A48327C4FD83C70700C3
:1051500093E7470013F7F70F8327C4FD2380E70089
:105160008327C4FD03C7170183C62701A206558FF5
:1051700083C63701C206558F83C74701E207D98F1F
:10518000638A071A8327C4FD03C7170083C6270055
:10519000A206558F83C63700C206558F83C74700C6
:1051A000E207D98F05476380E70689C70947638609
:1051B000E70ADDA88327C4FD03C7570083C667003D
:1051C000A206558F83C67700C206558F83C7870016
:1051D000E207D98F3E868327C4FD03C7970083C6A5
:1051E000A700A206558F83C6B700C206558F83C796
:1051F000C700E207D98FB297032784FD1377F70F13
:105200002380E70055A08327C4FD03C7570083C64A
:105210006700A206558F83C67700C206558F83C7E5
:105220008700E207D98F3E868327C4FD03C7970016
:1052300083C6A700A206558F83C6B700C206558F46
:1052400083C7C700E207D98F8607B297032784FD7B
:10525000420741832390E70081A88327C4FD03C749
:10526000570083C66700A206558F83C67700C20623
:10527000558F83C78700E207D98F3E868327C4FDF9
:1052800003C7970083C6A700A206558F83C6B70041
:10529000C206558F83C7C700E207D98F8A07B29726
:1052A000032784FD98C3010085450325C4FDEFF065
:1052B0005F888327C4FD03C7170183C62701A206A1
:1052C000558F83C63701C206558F83C74701E20752
:1052D000D98F1387F7FF8327C4FD9375F70F83C614
:1052E0001701818A3686AE86D18EA388D700935661
:1052F000870093F5F60F83C62701818A3686AE862E
:10530000D18E2389D7009356070193F5F60F83C6F4
:105310003701818A3686AE86D18EA389D70013568F
:10532000870103C74701018BBA863287558F238ACD
:10533000E70021A095472326F4FE8327C4FD83C7F9
:105340000700ED9B13F7F70F8327C4FD2380E700C9
:105350008327C4FE3E85B250225445618280797114
:1053600006D622D40018232EA4FC232CB4FC232A16
:10537000C4FC8327C4FDB337F00093F7F70F3E87D3
:105380001306000BE5679385475F3A85EFF02FD84A
:10539000232604FE232404FE832784FD89E78D470A
:1053A0002326F4FE59AB8327C4FD83C70700958BE2
:1053B00093F7F70F89C791472326F4FEBDAB8327E8
:1053C000C4FD83C7070093E7470013F7F70F832750
:1053D000C4FD2380E7008327C4FD03C7170183C6EC
:1053E0002701A206558F83C63701C206558F83C792
:1053F0004701E207D98F3E87832744FD6361F75257
:105400008327C4FD03C7570183C66701A206558FD2
:1054100083C67701C206558F83C78701E207D98FFC
:105420003E868327C4FD03C7970083C6A700A20654
:10543000558F83C6B700C206558F83C7C700E207E2
:10544000D98FB307F6402324F4FE032744FD8327B6
:1054500084FE63F3E72E8327C4FD03C7170083C6CA
:105460002700A206558F83C63700C206558F83C713
:105470004700E207D98F05476385E70E89C70947CB
:105480006386E71C11A98327C4FD03C7570083C6A1
:105490006700A206558F83C67700C206558F83C763
:1054A0008700E207D98F3E868327C4FD03C7970094
:1054B00083C6A700A206558F83C6B700C206558FC4
:1054C00083C7C700E207D98FB297032684FE8325DE
:1054D00084FD3E85EF00E14F832584FE0325C4FD56
:1054E000EFF02FE58327C4FD03C7570083C667008D
:1054F000A206558F83C67700C206558F83C78700E3
:10550000E207D98F3E868327C4FD03C7970083C671
:10551000A700A206558F83C6B700C206558F83C762
:10552000C700E207D98FB306F600032784FD83275F
:1055300084FEB305F700032744FD832784FEB307E9
:10554000F7403E863685EF00C148032744FD832798
:1055500084FEB307F740BE850325C4FDEFF06FDD81
:1055600025AE8327C4FD03C7570083C66700A20684
:10557000558F83C67700C206558F83C78700E20721
:10558000D98F3E868327C4FD03C7970083C6A70033
:10559000A206558F83C6B700C206558F83C7C700C2
:1055A000E207D98F86073307F600832784FE860734
:1055B0003E86832584FD3A85EF00A141832584FE44
:1055C0000325C4FDEFF0EFD68327C4FD03C75700C2
:1055D00083C66700A206558F83C67700C206558F23
:1055E00083C78700E207D98F3E868327C4FD03C7A0
:1055F000970083C6A700A206558F83C6B700C206D0
:10560000558F83C7C700E207D98F8607B306F60018
:10561000832784FE8607032784FDB305F70003274D
:1056200044FD832784FEB307F74086073E86368510
:10563000EF00213A032744FD832784FEB307F74098
:10564000BE850325C4FDEFF0CFCEB9A48327C4FDEA
:1056500003C7570083C66700A206558F83C677002D
:10566000C206558F83C78700E207D98F3E868327FE
:10567000C4FD03C7970083C6A700A206558F83C643
:10568000B700C206558F83C7C700E207D98F8A07C4
:105690003307F600832784FE8A073E86832584FD30
:1056A0003A85EF000133832584FE0325C4FDEFF026
:1056B0004FC88327C4FD03C7570083C66700A206EF
:1056C000558F83C67700C206558F83C78700E207D0
:1056D000D98F3E868327C4FD03C7970083C6A700E2
:1056E000A206558F83C6B700C206558F83C7C70071
:1056F000E207D98F8A07B306F600832784FE8A075C
:10570000032784FDB305F700032744FD832784FEA8
:10571000B307F7408A073E863685EF00812B0327C3
:1057200044FD832784FEB307F740BE850325C4FDEF
:10573000EFF02FC001008DA28327C4FD03C717001F
:1057400083C62700A206558F83C63700C206558F31
:1057500083C74700E207D98F05476387E70689C7F4
:1057600009476387E70C0DAA8327C4FD03C75700C9
:1057700083C66700A206558F83C67700C206558F81
:1057800083C78700E207D98F3E868327C4FD03C7FE
:10579000970083C6A700A206558F83C6B700C2062E
:1057A000558F83C7C700E207D98FB297032644FD00
:1057B000832584FD3E85EF00C121832544FD03251B
:1057C000C4FDEFF00FB7C9A88327C4FD03C7570076
:1057D00083C66700A206558F83C67700C206558F21
:1057E00083C78700E207D98F3E868327C4FD03C79E
:1057F000970083C6A700A206558F83C6B700C206CE
:10580000558F83C7C700E207D98F86073307F60095
:10581000832744FD86073E86832584FD3A85EF0075
:10582000411B832544FD0325C4FDEFF08FB0ADA0DF
:105830008327C4FD03C7570083C66700A206558FA0
:1058400083C67700C206558F83C78700E207D98FCA
:105850003E868327C4FD03C7970083C6A700A20620
:10586000558F83C6B700C206558F83C7C700E207AE
:10587000D98F8A073307F600832744FD8A073E86BF
:10588000832584FD3A85EF00C114832544FD03255B
:10589000C4FDEFF00FAA01008327C4FD03C7170161
:1058A00083C62701A206558F83C63701C206558FCE
:1058B00083C74701E207D98F3E87832744FD1D8FA9
:1058C0008327C4FD9375F70F83C61701818A368637
:1058D000AE86D18EA388D7009356870093F5F60F36
:1058E00083C62701818A3686AE86D18E2389D7006A
:1058F0009356070193F5F60F83C63701818A3686E2
:10590000AE86D18EA389D7001356870103C74701FE
:10591000018BBA863287558F238AE70021A09547ED
:105920002326F4FE8327C4FD83C70700ED9B13F7EE
:10593000F70F8327C4FD2380E7008327C4FE3E853D
:10594000B250225445618280797106D622D4001863
:10595000232EA4FC232CB4FC232AC4FC2328D4FC2F
:105960008327C4FDB337F00093F7F70F3E87130684
:105970001016E5679385475F3A85EFE05FF9832767
:1059800044FDB337F00093F7F70F3E871306201658
:10599000E5679385475F3A85EFE07FF7232604FEAE
:1059A000232404FE232204FE832784FD89E78D47F8
:1059B0002326F4FEA9A18327C4FD83C707008D8B8E
:1059C00093F7F70F91CB832744FD032744FE98C339
:1059D00099472326F4FE21A30325C4FDEFF08FEAA7
:1059E0002322A4FE832744FD9C43032744FE6379BE
:1059F000F702832744FD032744FE98C39D472326CF
:105A0000F4FE832744FE89EF8327C4FD83C7070084
:105A1000DD9B13F7F70F8327C4FD2380E700C1A1A7
:105A20008327C4FD83C7070093E7870013F7F70FA9
:105A30008327C4FD2380E7008327C4FD03C75701E4
:105A400083C66701A206558F83C67701C206558FAC
:105A500083C78701E207D98F3E868327C4FD03C72A
:105A6000D70083C6E700A206558F83C6F700C2069B
:105A7000558F83C70701E207D98FB307F640232468
:105A8000F4FE832744FD9C43032784FE6366F714DA
:105A90008327C4FD03C7170083C62700A206558FBE
:105AA00083C63700C206558F83C74700E207D98FE8
:105AB00005476384E70689C70947638FE70A2DA670
:105AC0008327C4FD03C7570083C66700A206558F0E
:105AD00083C67700C206558F83C78700E207D98F38
